{
  "contractName": "BlogNFT",
  "abi": [
    {
      "inputs": [],
      "stateMutability": "nonpayable",
      "type": "constructor"
    },
    {
      "anonymous": false,
      "inputs": [
        {
          "indexed": true,
          "internalType": "address",
          "name": "owner",
          "type": "address"
        },
        {
          "indexed": true,
          "internalType": "address",
          "name": "approved",
          "type": "address"
        },
        {
          "indexed": true,
          "internalType": "uint256",
          "name": "tokenId",
          "type": "uint256"
        }
      ],
      "name": "Approval",
      "type": "event"
    },
    {
      "anonymous": false,
      "inputs": [
        {
          "indexed": true,
          "internalType": "address",
          "name": "owner",
          "type": "address"
        },
        {
          "indexed": true,
          "internalType": "address",
          "name": "operator",
          "type": "address"
        },
        {
          "indexed": false,
          "internalType": "bool",
          "name": "approved",
          "type": "bool"
        }
      ],
      "name": "ApprovalForAll",
      "type": "event"
    },
    {
      "anonymous": false,
      "inputs": [
        {
          "indexed": true,
          "internalType": "address",
          "name": "from",
          "type": "address"
        },
        {
          "indexed": true,
          "internalType": "address",
          "name": "to",
          "type": "address"
        },
        {
          "indexed": true,
          "internalType": "uint256",
          "name": "tokenId",
          "type": "uint256"
        }
      ],
      "name": "Transfer",
      "type": "event"
    },
    {
      "inputs": [
        {
          "internalType": "address",
          "name": "to",
          "type": "address"
        },
        {
          "internalType": "uint256",
          "name": "tokenId",
          "type": "uint256"
        }
      ],
      "name": "approve",
      "outputs": [],
      "stateMutability": "nonpayable",
      "type": "function"
    },
    {
      "inputs": [
        {
          "internalType": "address",
          "name": "owner",
          "type": "address"
        }
      ],
      "name": "balanceOf",
      "outputs": [
        {
          "internalType": "uint256",
          "name": "",
          "type": "uint256"
        }
      ],
      "stateMutability": "view",
      "type": "function"
    },
    {
      "inputs": [],
      "name": "baseURI",
      "outputs": [
        {
          "internalType": "string",
          "name": "",
          "type": "string"
        }
      ],
      "stateMutability": "view",
      "type": "function"
    },
    {
      "inputs": [
        {
          "internalType": "uint256",
          "name": "tokenId",
          "type": "uint256"
        }
      ],
      "name": "getApproved",
      "outputs": [
        {
          "internalType": "address",
          "name": "",
          "type": "address"
        }
      ],
      "stateMutability": "view",
      "type": "function"
    },
    {
      "inputs": [
        {
          "internalType": "address",
          "name": "owner",
          "type": "address"
        },
        {
          "internalType": "address",
          "name": "operator",
          "type": "address"
        }
      ],
      "name": "isApprovedForAll",
      "outputs": [
        {
          "internalType": "bool",
          "name": "",
          "type": "bool"
        }
      ],
      "stateMutability": "view",
      "type": "function"
    },
    {
      "inputs": [],
      "name": "name",
      "outputs": [
        {
          "internalType": "string",
          "name": "",
          "type": "string"
        }
      ],
      "stateMutability": "view",
      "type": "function"
    },
    {
      "inputs": [
        {
          "internalType": "uint256",
          "name": "tokenId",
          "type": "uint256"
        }
      ],
      "name": "ownerOf",
      "outputs": [
        {
          "internalType": "address",
          "name": "",
          "type": "address"
        }
      ],
      "stateMutability": "view",
      "type": "function"
    },
    {
      "inputs": [
        {
          "internalType": "address",
          "name": "from",
          "type": "address"
        },
        {
          "internalType": "address",
          "name": "to",
          "type": "address"
        },
        {
          "internalType": "uint256",
          "name": "tokenId",
          "type": "uint256"
        }
      ],
      "name": "safeTransferFrom",
      "outputs": [],
      "stateMutability": "nonpayable",
      "type": "function"
    },
    {
      "inputs": [
        {
          "internalType": "address",
          "name": "from",
          "type": "address"
        },
        {
          "internalType": "address",
          "name": "to",
          "type": "address"
        },
        {
          "internalType": "uint256",
          "name": "tokenId",
          "type": "uint256"
        },
        {
          "internalType": "bytes",
          "name": "_data",
          "type": "bytes"
        }
      ],
      "name": "safeTransferFrom",
      "outputs": [],
      "stateMutability": "nonpayable",
      "type": "function"
    },
    {
      "inputs": [
        {
          "internalType": "address",
          "name": "operator",
          "type": "address"
        },
        {
          "internalType": "bool",
          "name": "approved",
          "type": "bool"
        }
      ],
      "name": "setApprovalForAll",
      "outputs": [],
      "stateMutability": "nonpayable",
      "type": "function"
    },
    {
      "inputs": [
        {
          "internalType": "bytes4",
          "name": "interfaceId",
          "type": "bytes4"
        }
      ],
      "name": "supportsInterface",
      "outputs": [
        {
          "internalType": "bool",
          "name": "",
          "type": "bool"
        }
      ],
      "stateMutability": "view",
      "type": "function"
    },
    {
      "inputs": [],
      "name": "symbol",
      "outputs": [
        {
          "internalType": "string",
          "name": "",
          "type": "string"
        }
      ],
      "stateMutability": "view",
      "type": "function"
    },
    {
      "inputs": [
        {
          "internalType": "uint256",
          "name": "index",
          "type": "uint256"
        }
      ],
      "name": "tokenByIndex",
      "outputs": [
        {
          "internalType": "uint256",
          "name": "",
          "type": "uint256"
        }
      ],
      "stateMutability": "view",
      "type": "function"
    },
    {
      "inputs": [
        {
          "internalType": "address",
          "name": "owner",
          "type": "address"
        },
        {
          "internalType": "uint256",
          "name": "index",
          "type": "uint256"
        }
      ],
      "name": "tokenOfOwnerByIndex",
      "outputs": [
        {
          "internalType": "uint256",
          "name": "",
          "type": "uint256"
        }
      ],
      "stateMutability": "view",
      "type": "function"
    },
    {
      "inputs": [
        {
          "internalType": "uint256",
          "name": "tokenId",
          "type": "uint256"
        }
      ],
      "name": "tokenURI",
      "outputs": [
        {
          "internalType": "string",
          "name": "",
          "type": "string"
        }
      ],
      "stateMutability": "view",
      "type": "function"
    },
    {
      "inputs": [],
      "name": "totalSupply",
      "outputs": [
        {
          "internalType": "uint256",
          "name": "",
          "type": "uint256"
        }
      ],
      "stateMutability": "view",
      "type": "function"
    },
    {
      "inputs": [
        {
          "internalType": "address",
          "name": "from",
          "type": "address"
        },
        {
          "internalType": "address",
          "name": "to",
          "type": "address"
        },
        {
          "internalType": "uint256",
          "name": "tokenId",
          "type": "uint256"
        }
      ],
      "name": "transferFrom",
      "outputs": [],
      "stateMutability": "nonpayable",
      "type": "function"
    },
    {
      "inputs": [
        {
          "internalType": "address",
          "name": "new_owner_address",
          "type": "address"
        }
      ],
      "name": "addOwner",
      "outputs": [],
      "stateMutability": "nonpayable",
      "type": "function"
    },
    {
      "inputs": [
        {
          "internalType": "address",
          "name": "new_creator_address",
          "type": "address"
        }
      ],
      "name": "addCreator",
      "outputs": [],
      "stateMutability": "nonpayable",
      "type": "function"
    },
    {
      "inputs": [
        {
          "internalType": "address",
          "name": "recipient",
          "type": "address"
        },
        {
          "internalType": "string",
          "name": "hash",
          "type": "string"
        },
        {
          "internalType": "string",
          "name": "metadata",
          "type": "string"
        }
      ],
      "name": "awardItem",
      "outputs": [
        {
          "internalType": "uint256",
          "name": "",
          "type": "uint256"
        }
      ],
      "stateMutability": "nonpayable",
      "type": "function"
    }
  ],
  "bytecode": "0x60806040523480156200001157600080fd5b506040518060400160405280600781526020017f426c6f674e4654000000000000000000000000000000000000000000000000008152506040518060400160405280600481526020017f424c4f4700000000000000000000000000000000000000000000000000000000815250620000966301ffc9a760e01b6200017060201b60201c565b8160069080519060200190620000ae92919062000279565b508060079080519060200190620000c792919062000279565b50620000e06380ac58cd60e01b6200017060201b60201c565b620000f8635b5e139f60e01b6200017060201b60201c565b6200011063780e9d6360e01b6200017060201b60201c565b50506001600d60003373ffffffffffffffffffffffffffffffffffffffff1673ffffffffffffffffffffffffffffffffffffffff16815260200190815260200160002060006101000a81548160ff0219169083151502179055506200031f565b63ffffffff60e01b817bffffffffffffffffffffffffffffffffffffffffffffffffffffffff191614156200020d576040517f08c379a000000000000000000000000000000000000000000000000000000000815260040180806020018281038252601c8152602001807f4552433136353a20696e76616c696420696e746572666163652069640000000081525060200191505060405180910390fd5b6001600080837bffffffffffffffffffffffffffffffffffffffffffffffffffffffff19167bffffffffffffffffffffffffffffffffffffffffffffffffffffffff1916815260200190815260200160002060006101000a81548160ff02191690831515021790555050565b828054600181600116156101000203166002900490600052602060002090601f016020900481019282601f10620002bc57805160ff1916838001178555620002ed565b82800160010185558215620002ed579182015b82811115620002ec578251825591602001919060010190620002cf565b5b509050620002fc919062000300565b5090565b5b808211156200031b57600081600090555060010162000301565b5090565b61310a806200032f6000396000f3fe608060405234801561001057600080fd5b506004361061012c5760003560e01c80636352211e116100ad57806395d89b411161007157806395d89b411461079c578063a22cb4651461081f578063b88d4fde1461086f578063c87b56dd14610974578063e985e9c514610a1b5761012c565b80636352211e1461049f5780636c0360eb146104f75780637065cb481461057a57806370a08231146105be5780638bfaf101146106165761012c565b806323b872dd116100f457806323b872dd146102db5780632f745c59146103495780633b9dce05146103ab57806342842e0e146103ef5780634f6ccce71461045d5761012c565b806301ffc9a71461013157806306fdde0314610194578063081812fc14610217578063095ea7b31461026f57806318160ddd146102bd575b600080fd5b61017c6004803603602081101561014757600080fd5b8101908080357bffffffffffffffffffffffffffffffffffffffffffffffffffffffff19169060200190929190505050610a95565b60405180821515815260200191505060405180910390f35b61019c610afc565b6040518080602001828103825283818151815260200191508051906020019080838360005b838110156101dc5780820151818401526020810190506101c1565b50505050905090810190601f1680156102095780820380516001836020036101000a031916815260200191505b509250505060405180910390f35b6102436004803603602081101561022d57600080fd5b8101908080359060200190929190505050610b9e565b604051808273ffffffffffffffffffffffffffffffffffffffff16815260200191505060405180910390f35b6102bb6004803603604081101561028557600080fd5b81019080803573ffffffffffffffffffffffffffffffffffffffff16906020019092919080359060200190929190505050610c39565b005b6102c5610d7d565b6040518082815260200191505060405180910390f35b610347600480360360608110156102f157600080fd5b81019080803573ffffffffffffffffffffffffffffffffffffffff169060200190929190803573ffffffffffffffffffffffffffffffffffffffff16906020019092919080359060200190929190505050610d8e565b005b6103956004803603604081101561035f57600080fd5b81019080803573ffffffffffffffffffffffffffffffffffffffff16906020019092919080359060200190929190505050610e04565b6040518082815260200191505060405180910390f35b6103ed600480360360208110156103c157600080fd5b81019080803573ffffffffffffffffffffffffffffffffffffffff169060200190929190505050610e5f565b005b61045b6004803603606081101561040557600080fd5b81019080803573ffffffffffffffffffffffffffffffffffffffff169060200190929190803573ffffffffffffffffffffffffffffffffffffffff16906020019092919080359060200190929190505050610f80565b005b6104896004803603602081101561047357600080fd5b8101908080359060200190929190505050610fa0565b6040518082815260200191505060405180910390f35b6104cb600480360360208110156104b557600080fd5b8101908080359060200190929190505050610fc3565b604051808273ffffffffffffffffffffffffffffffffffffffff16815260200191505060405180910390f35b6104ff610ffa565b6040518080602001828103825283818151815260200191508051906020019080838360005b8381101561053f578082015181840152602081019050610524565b50505050905090810190601f16801561056c5780820380516001836020036101000a031916815260200191505b509250505060405180910390f35b6105bc6004803603602081101561059057600080fd5b81019080803573ffffffffffffffffffffffffffffffffffffffff16906020019092919050505061109c565b005b610600600480360360208110156105d457600080fd5b81019080803573ffffffffffffffffffffffffffffffffffffffff1690602001909291905050506111bd565b6040518082815260200191505060405180910390f35b6107866004803603606081101561062c57600080fd5b81019080803573ffffffffffffffffffffffffffffffffffffffff1690602001909291908035906020019064010000000081111561066957600080fd5b82018360208201111561067b57600080fd5b8035906020019184600183028401116401000000008311171561069d57600080fd5b91908080601f016020809104026020016040519081016040528093929190818152602001838380828437600081840152601f19601f8201169050808301925050505050505091929192908035906020019064010000000081111561070057600080fd5b82018360208201111561071257600080fd5b8035906020019184600183028401116401000000008311171561073457600080fd5b91908080601f016020809104026020016040519081016040528093929190818152602001838380828437600081840152601f19601f820116905080830192505050505050509192919290505050611292565b6040518082815260200191505060405180910390f35b6107a461149b565b6040518080602001828103825283818151815260200191508051906020019080838360005b838110156107e45780820151818401526020810190506107c9565b50505050905090810190601f1680156108115780820380516001836020036101000a031916815260200191505b509250505060405180910390f35b61086d6004803603604081101561083557600080fd5b81019080803573ffffffffffffffffffffffffffffffffffffffff16906020019092919080351515906020019092919050505061153d565b005b6109726004803603608081101561088557600080fd5b81019080803573ffffffffffffffffffffffffffffffffffffffff169060200190929190803573ffffffffffffffffffffffffffffffffffffffff16906020019092919080359060200190929190803590602001906401000000008111156108ec57600080fd5b8201836020820111156108fe57600080fd5b8035906020019184600183028401116401000000008311171561092057600080fd5b91908080601f016020809104026020016040519081016040528093929190818152602001838380828437600081840152601f19601f8201169050808301925050505050505091929192905050506116f3565b005b6109a06004803603602081101561098a57600080fd5b810190808035906020019092919050505061176b565b6040518080602001828103825283818151815260200191508051906020019080838360005b838110156109e05780820151818401526020810190506109c5565b50505050905090810190601f168015610a0d5780820380516001836020036101000a031916815260200191505b509250505060405180910390f35b610a7d60048036036040811015610a3157600080fd5b81019080803573ffffffffffffffffffffffffffffffffffffffff169060200190929190803573ffffffffffffffffffffffffffffffffffffffff169060200190929190505050611a3c565b60405180821515815260200191505060405180910390f35b6000806000837bffffffffffffffffffffffffffffffffffffffffffffffffffffffff19167bffffffffffffffffffffffffffffffffffffffffffffffffffffffff1916815260200190815260200160002060009054906101000a900460ff169050919050565b606060068054600181600116156101000203166002900480601f016020809104026020016040519081016040528092919081815260200182805460018160011615610100020316600290048015610b945780601f10610b6957610100808354040283529160200191610b94565b820191906000526020600020905b815481529060010190602001808311610b7757829003601f168201915b5050505050905090565b6000610ba982611ad0565b610bfe576040517f08c379a000000000000000000000000000000000000000000000000000000000815260040180806020018281038252602c815260200180612fd3602c913960400191505060405180910390fd5b6004600083815260200190815260200160002060009054906101000a900473ffffffffffffffffffffffffffffffffffffffff169050919050565b6000610c4482610fc3565b90508073ffffffffffffffffffffffffffffffffffffffff168373ffffffffffffffffffffffffffffffffffffffff161415610ccb576040517f08c379a00000000000000000000000000000000000000000000000000000000081526004018080602001828103825260218152602001806130836021913960400191505060405180910390fd5b8073ffffffffffffffffffffffffffffffffffffffff16610cea611aed565b73ffffffffffffffffffffffffffffffffffffffff161480610d195750610d1881610d13611aed565b611a3c565b5b610d6e576040517f08c379a0000000000000000000000000000000000000000000000000000000008152600401808060200182810382526038815260200180612f266038913960400191505060405180910390fd5b610d788383611af5565b505050565b6000610d896002611bae565b905090565b610d9f610d99611aed565b82611bc3565b610df4576040517f08c379a00000000000000000000000000000000000000000000000000000000081526004018080602001828103825260318152602001806130a46031913960400191505060405180910390fd5b610dff838383611cb7565b505050565b6000610e5782600160008673ffffffffffffffffffffffffffffffffffffffff1673ffffffffffffffffffffffffffffffffffffffff168152602001908152602001600020611efa90919063ffffffff16565b905092915050565b60011515600d60003373ffffffffffffffffffffffffffffffffffffffff1673ffffffffffffffffffffffffffffffffffffffff16815260200190815260200160002060009054906101000a900460ff16151514610f25576040517f08c379a000000000000000000000000000000000000000000000000000000000815260040180806020018281038252600b8152602001807f6e6f742061206f776e657200000000000000000000000000000000000000000081525060200191505060405180910390fd5b6001600c60008373ffffffffffffffffffffffffffffffffffffffff1673ffffffffffffffffffffffffffffffffffffffff16815260200190815260200160002060006101000a81548160ff02191690831515021790555050565b610f9b838383604051806020016040528060008152506116f3565b505050565b600080610fb7836002611f1490919063ffffffff16565b50905080915050919050565b6000610ff382604051806060016040528060298152602001612f88602991396002611f409092919063ffffffff16565b9050919050565b606060098054600181600116156101000203166002900480601f0160208091040260200160405190810160405280929190818152602001828054600181600116156101000203166002900480156110925780601f1061106757610100808354040283529160200191611092565b820191906000526020600020905b81548152906001019060200180831161107557829003601f168201915b5050505050905090565b60011515600d60003373ffffffffffffffffffffffffffffffffffffffff1673ffffffffffffffffffffffffffffffffffffffff16815260200190815260200160002060009054906101000a900460ff16151514611162576040517f08c379a000000000000000000000000000000000000000000000000000000000815260040180806020018281038252600b8152602001807f6e6f742061206f776e657200000000000000000000000000000000000000000081525060200191505060405180910390fd5b6001600d60008373ffffffffffffffffffffffffffffffffffffffff1673ffffffffffffffffffffffffffffffffffffffff16815260200190815260200160002060006101000a81548160ff02191690831515021790555050565b60008073ffffffffffffffffffffffffffffffffffffffff168273ffffffffffffffffffffffffffffffffffffffff161415611244576040517f08c379a000000000000000000000000000000000000000000000000000000000815260040180806020018281038252602a815260200180612f5e602a913960400191505060405180910390fd5b61128b600160008473ffffffffffffffffffffffffffffffffffffffff1673ffffffffffffffffffffffffffffffffffffffff168152602001908152602001600020611f5f565b9050919050565b600060011515600c60003373ffffffffffffffffffffffffffffffffffffffff1673ffffffffffffffffffffffffffffffffffffffff16815260200190815260200160002060009054906101000a900460ff1615151461135a576040517f08c379a000000000000000000000000000000000000000000000000000000000815260040180806020018281038252600d8152602001807f6e6f7420612063726561746f720000000000000000000000000000000000000081525060200191505060405180910390fd5b6001600b846040518082805190602001908083835b60208310611392578051825260208201915060208101905060208303925061136f565b6001836020036101000a038019825116818451168082178552505050505050905001915050908152602001604051809103902060009054906101000a900460ff1660ff1614156113e157600080fd5b6001600b846040518082805190602001908083835b6020831061141957805182526020820191506020810190506020830392506113f6565b6001836020036101000a038019825116818451168082178552505050505050905001915050908152602001604051809103902060006101000a81548160ff021916908360ff16021790555061146e600a611f74565b600061147a600a611f8a565b90506114868582611f98565b611490818461218c565b809150509392505050565b606060078054600181600116156101000203166002900480601f0160208091040260200160405190810160405280929190818152602001828054600181600116156101000203166002900480156115335780601f1061150857610100808354040283529160200191611533565b820191906000526020600020905b81548152906001019060200180831161151657829003601f168201915b5050505050905090565b611545611aed565b73ffffffffffffffffffffffffffffffffffffffff168273ffffffffffffffffffffffffffffffffffffffff1614156115e6576040517f08c379a00000000000000000000000000000000000000000000000000000000081526004018080602001828103825260198152602001807f4552433732313a20617070726f766520746f2063616c6c65720000000000000081525060200191505060405180910390fd5b80600560006115f3611aed565b73ffffffffffffffffffffffffffffffffffffffff1673ffffffffffffffffffffffffffffffffffffffff16815260200190815260200160002060008473ffffffffffffffffffffffffffffffffffffffff1673ffffffffffffffffffffffffffffffffffffffff16815260200190815260200160002060006101000a81548160ff0219169083151502179055508173ffffffffffffffffffffffffffffffffffffffff166116a0611aed565b73ffffffffffffffffffffffffffffffffffffffff167f17307eab39ab6107e8899845ad3d59bd9653f200f220920489ca2b5937696c318360405180821515815260200191505060405180910390a35050565b6117046116fe611aed565b83611bc3565b611759576040517f08c379a00000000000000000000000000000000000000000000000000000000081526004018080602001828103825260318152602001806130a46031913960400191505060405180910390fd5b61176584848484612216565b50505050565b606061177682611ad0565b6117cb576040517f08c379a000000000000000000000000000000000000000000000000000000000815260040180806020018281038252602f815260200180613054602f913960400191505060405180910390fd5b6060600860008481526020019081526020016000208054600181600116156101000203166002900480601f0160208091040260200160405190810160405280929190818152602001828054600181600116156101000203166002900480156118745780601f1061184957610100808354040283529160200191611874565b820191906000526020600020905b81548152906001019060200180831161185757829003601f168201915b505050505090506060611885610ffa565b905060008151141561189b578192505050611a37565b60008251111561196c5780826040516020018083805190602001908083835b602083106118dd57805182526020820191506020810190506020830392506118ba565b6001836020036101000a03801982511681845116808217855250505050505090500182805190602001908083835b6020831061192e578051825260208201915060208101905060208303925061190b565b6001836020036101000a0380198251168184511680821785525050505050509050019250505060405160208183030381529060405292505050611a37565b8061197685612288565b6040516020018083805190602001908083835b602083106119ac5780518252602082019150602081019050602083039250611989565b6001836020036101000a03801982511681845116808217855250505050505090500182805190602001908083835b602083106119fd57805182526020820191506020810190506020830392506119da565b6001836020036101000a03801982511681845116808217855250505050505090500192505050604051602081830303815290604052925050505b919050565b6000600560008473ffffffffffffffffffffffffffffffffffffffff1673ffffffffffffffffffffffffffffffffffffffff16815260200190815260200160002060008373ffffffffffffffffffffffffffffffffffffffff1673ffffffffffffffffffffffffffffffffffffffff16815260200190815260200160002060009054906101000a900460ff16905092915050565b6000611ae68260026123cf90919063ffffffff16565b9050919050565b600033905090565b816004600083815260200190815260200160002060006101000a81548173ffffffffffffffffffffffffffffffffffffffff021916908373ffffffffffffffffffffffffffffffffffffffff160217905550808273ffffffffffffffffffffffffffffffffffffffff16611b6883610fc3565b73ffffffffffffffffffffffffffffffffffffffff167f8c5be1e5ebec7d5bd14f71427d1e84f3dd0314c0f7b2291e5b200ac8c7c3b92560405160405180910390a45050565b6000611bbc826000016123e9565b9050919050565b6000611bce82611ad0565b611c23576040517f08c379a000000000000000000000000000000000000000000000000000000000815260040180806020018281038252602c815260200180612efa602c913960400191505060405180910390fd5b6000611c2e83610fc3565b90508073ffffffffffffffffffffffffffffffffffffffff168473ffffffffffffffffffffffffffffffffffffffff161480611c9d57508373ffffffffffffffffffffffffffffffffffffffff16611c8584610b9e565b73ffffffffffffffffffffffffffffffffffffffff16145b80611cae5750611cad8185611a3c565b5b91505092915050565b8273ffffffffffffffffffffffffffffffffffffffff16611cd782610fc3565b73ffffffffffffffffffffffffffffffffffffffff1614611d43576040517f08c379a000000000000000000000000000000000000000000000000000000000815260040180806020018281038252602981526020018061302b6029913960400191505060405180910390fd5b600073ffffffffffffffffffffffffffffffffffffffff168273ffffffffffffffffffffffffffffffffffffffff161415611dc9576040517f08c379a0000000000000000000000000000000000000000000000000000000008152600401808060200182810382526024815260200180612eb06024913960400191505060405180910390fd5b611dd48383836123fa565b611ddf600082611af5565b611e3081600160008673ffffffffffffffffffffffffffffffffffffffff1673ffffffffffffffffffffffffffffffffffffffff1681526020019081526020016000206123ff90919063ffffffff16565b50611e8281600160008573ffffffffffffffffffffffffffffffffffffffff1673ffffffffffffffffffffffffffffffffffffffff16815260200190815260200160002061241990919063ffffffff16565b50611e99818360026124339092919063ffffffff16565b50808273ffffffffffffffffffffffffffffffffffffffff168473ffffffffffffffffffffffffffffffffffffffff167fddf252ad1be2c89b69c2b068fc378daa952ba7f163c4a11628f55a4df523b3ef60405160405180910390a4505050565b6000611f098360000183612468565b60001c905092915050565b600080600080611f2786600001866124eb565b915091508160001c8160001c9350935050509250929050565b6000611f53846000018460001b84612584565b60001c90509392505050565b6000611f6d8260000161267a565b9050919050565b6001816000016000828254019250508190555050565b600081600001549050919050565b600073ffffffffffffffffffffffffffffffffffffffff168273ffffffffffffffffffffffffffffffffffffffff16141561203b576040517f08c379a00000000000000000000000000000000000000000000000000000000081526004018080602001828103825260208152602001807f4552433732313a206d696e7420746f20746865207a65726f206164647265737381525060200191505060405180910390fd5b61204481611ad0565b156120b7576040517f08c379a000000000000000000000000000000000000000000000000000000000815260040180806020018281038252601c8152602001807f4552433732313a20746f6b656e20616c7265616479206d696e7465640000000081525060200191505060405180910390fd5b6120c3600083836123fa565b61211481600160008573ffffffffffffffffffffffffffffffffffffffff1673ffffffffffffffffffffffffffffffffffffffff16815260200190815260200160002061241990919063ffffffff16565b5061212b818360026124339092919063ffffffff16565b50808273ffffffffffffffffffffffffffffffffffffffff16600073ffffffffffffffffffffffffffffffffffffffff167fddf252ad1be2c89b69c2b068fc378daa952ba7f163c4a11628f55a4df523b3ef60405160405180910390a45050565b61219582611ad0565b6121ea576040517f08c379a000000000000000000000000000000000000000000000000000000000815260040180806020018281038252602c815260200180612fff602c913960400191505060405180910390fd5b80600860008481526020019081526020016000209080519060200190612211929190612dbe565b505050565b612221848484611cb7565b61222d8484848461268b565b612282576040517f08c379a0000000000000000000000000000000000000000000000000000000008152600401808060200182810382526032815260200180612e7e6032913960400191505060405180910390fd5b50505050565b606060008214156122d0576040518060400160405280600181526020017f300000000000000000000000000000000000000000000000000000000000000081525090506123ca565b600082905060005b600082146122fa578080600101915050600a82816122f257fe5b0491506122d8565b60608167ffffffffffffffff8111801561231357600080fd5b506040519080825280601f01601f1916602001820160405280156123465781602001600182028036833780820191505090505b50905060006001830390508593505b600084146123c257600a848161236757fe5b0660300160f81b8282806001900393508151811061238157fe5b60200101907effffffffffffffffffffffffffffffffffffffffffffffffffffffffffffff1916908160001a905350600a84816123ba57fe5b049350612355565b819450505050505b919050565b60006123e1836000018360001b6128a4565b905092915050565b600081600001805490509050919050565b505050565b6000612411836000018360001b6128c7565b905092915050565b600061242b836000018360001b6129af565b905092915050565b600061245f846000018460001b8473ffffffffffffffffffffffffffffffffffffffff1660001b612a1f565b90509392505050565b6000818360000180549050116124c9576040517f08c379a0000000000000000000000000000000000000000000000000000000008152600401808060200182810382526022815260200180612e5c6022913960400191505060405180910390fd5b8260000182815481106124d857fe5b9060005260206000200154905092915050565b6000808284600001805490501161254d576040517f08c379a0000000000000000000000000000000000000000000000000000000008152600401808060200182810382526022815260200180612fb16022913960400191505060405180910390fd5b600084600001848154811061255e57fe5b906000526020600020906002020190508060000154816001015492509250509250929050565b6000808460010160008581526020019081526020016000205490506000811415839061264b576040517f08c379a00000000000000000000000000000000000000000000000000000000081526004018080602001828103825283818151815260200191508051906020019080838360005b838110156126105780820151818401526020810190506125f5565b50505050905090810190601f16801561263d5780820380516001836020036101000a031916815260200191505b509250505060405180910390fd5b5084600001600182038154811061265e57fe5b9060005260206000209060020201600101549150509392505050565b600081600001805490509050919050565b60006126ac8473ffffffffffffffffffffffffffffffffffffffff16612afb565b6126b9576001905061289c565b606061282363150b7a0260e01b6126ce611aed565b888787604051602401808573ffffffffffffffffffffffffffffffffffffffff1681526020018473ffffffffffffffffffffffffffffffffffffffff16815260200183815260200180602001828103825283818151815260200191508051906020019080838360005b83811015612752578082015181840152602081019050612737565b50505050905090810190601f16801561277f5780820380516001836020036101000a031916815260200191505b5095505050505050604051602081830303815290604052907bffffffffffffffffffffffffffffffffffffffffffffffffffffffff19166020820180517bffffffffffffffffffffffffffffffffffffffffffffffffffffffff8381831617835250505050604051806060016040528060328152602001612e7e603291398773ffffffffffffffffffffffffffffffffffffffff16612b0e9092919063ffffffff16565b9050600081806020019051602081101561283c57600080fd5b8101908080519060200190929190505050905063150b7a0260e01b7bffffffffffffffffffffffffffffffffffffffffffffffffffffffff1916817bffffffffffffffffffffffffffffffffffffffffffffffffffffffff191614925050505b949350505050565b600080836001016000848152602001908152602001600020541415905092915050565b600080836001016000848152602001908152602001600020549050600081146129a3576000600182039050600060018660000180549050039050600086600001828154811061291257fe5b906000526020600020015490508087600001848154811061292f57fe5b906000526020600020018190555060018301876001016000838152602001908152602001600020819055508660000180548061296757fe5b600190038181906000526020600020016000905590558660010160008781526020019081526020016000206000905560019450505050506129a9565b60009150505b92915050565b60006129bb8383612b26565b612a14578260000182908060018154018082558091505060019003906000526020600020016000909190919091505582600001805490508360010160008481526020019081526020016000208190555060019050612a19565b600090505b92915050565b6000808460010160008581526020019081526020016000205490506000811415612ac657846000016040518060400160405280868152602001858152509080600181540180825580915050600190039060005260206000209060020201600090919091909150600082015181600001556020820151816001015550508460000180549050856001016000868152602001908152602001600020819055506001915050612af4565b82856000016001830381548110612ad957fe5b90600052602060002090600202016001018190555060009150505b9392505050565b600080823b905060008111915050919050565b6060612b1d8484600085612b49565b90509392505050565b600080836001016000848152602001908152602001600020541415905092915050565b606082471015612ba4576040517f08c379a0000000000000000000000000000000000000000000000000000000008152600401808060200182810382526026815260200180612ed46026913960400191505060405180910390fd5b612bad85612afb565b612c1f576040517f08c379a000000000000000000000000000000000000000000000000000000000815260040180806020018281038252601d8152602001807f416464726573733a2063616c6c20746f206e6f6e2d636f6e747261637400000081525060200191505060405180910390fd5b600060608673ffffffffffffffffffffffffffffffffffffffff1685876040518082805190602001908083835b60208310612c6f5780518252602082019150602081019050602083039250612c4c565b6001836020036101000a03801982511681845116808217855250505050505090500191505060006040518083038185875af1925050503d8060008114612cd1576040519150601f19603f3d011682016040523d82523d6000602084013e612cd6565b606091505b5091509150612ce6828286612cf2565b92505050949350505050565b60608315612d0257829050612db7565b600083511115612d155782518084602001fd5b816040517f08c379a00000000000000000000000000000000000000000000000000000000081526004018080602001828103825283818151815260200191508051906020019080838360005b83811015612d7c578082015181840152602081019050612d61565b50505050905090810190601f168015612da95780820380516001836020036101000a031916815260200191505b509250505060405180910390fd5b9392505050565b828054600181600116156101000203166002900490600052602060002090601f016020900481019282601f10612dff57805160ff1916838001178555612e2d565b82800160010185558215612e2d579182015b82811115612e2c578251825591602001919060010190612e11565b5b509050612e3a9190612e3e565b5090565b5b80821115612e57576000816000905550600101612e3f565b509056fe456e756d657261626c655365743a20696e646578206f7574206f6620626f756e64734552433732313a207472616e7366657220746f206e6f6e20455243373231526563656976657220696d706c656d656e7465724552433732313a207472616e7366657220746f20746865207a65726f2061646472657373416464726573733a20696e73756666696369656e742062616c616e636520666f722063616c6c4552433732313a206f70657261746f7220717565727920666f72206e6f6e6578697374656e7420746f6b656e4552433732313a20617070726f76652063616c6c6572206973206e6f74206f776e6572206e6f7220617070726f76656420666f7220616c6c4552433732313a2062616c616e636520717565727920666f7220746865207a65726f20616464726573734552433732313a206f776e657220717565727920666f72206e6f6e6578697374656e7420746f6b656e456e756d657261626c654d61703a20696e646578206f7574206f6620626f756e64734552433732313a20617070726f76656420717565727920666f72206e6f6e6578697374656e7420746f6b656e4552433732314d657461646174613a2055524920736574206f66206e6f6e6578697374656e7420746f6b656e4552433732313a207472616e73666572206f6620746f6b656e2074686174206973206e6f74206f776e4552433732314d657461646174613a2055524920717565727920666f72206e6f6e6578697374656e7420746f6b656e4552433732313a20617070726f76616c20746f2063757272656e74206f776e65724552433732313a207472616e736665722063616c6c6572206973206e6f74206f776e6572206e6f7220617070726f766564a264697066735822122091e787ddace606579c2f97a7bbd53653a9c9242aab64b924060342af85aaa15b64736f6c634300060c0033",
  "immutableReferences": {},
  "source": "pragma solidity ^0.6.0;\nimport \"@openzeppelin/contracts/token/ERC721/ERC721.sol\";\nimport \"@openzeppelin/contracts/utils/Counters.sol\";\n\n\ncontract BlogNFT is ERC721 {\n    using Counters for Counters.Counter;\n    Counters.Counter private _tokenIds;\n    mapping(string => uint8) hashes;\n    mapping(address => bool) creators;\n    mapping(address => bool) owners;\n\n    constructor() public ERC721(\"BlogNFT\", \"BLOG\") {\n        owners[msg.sender] = true;\n    }\n\n    function addOwner(address new_owner_address) public {\n        require(owners[msg.sender] == true, \"not a owner\");\n        owners[new_owner_address] = true;\n    }\n\n    function addCreator(address new_creator_address) public {\n        require(owners[msg.sender] == true, \"not a owner\");\n        creators[new_creator_address] = true;\n    }\n\n    function awardItem(address recipient, string memory hash, string memory metadata) public returns (uint256){\n        require(creators[msg.sender] == true, \"not a creator\");\n        require(hashes[hash] != 1); //check hash doesn't already exist\n        hashes[hash] = 1;\n        _tokenIds.increment();\n        uint256 newItemId = _tokenIds.current();\n        _mint(recipient, newItemId);\n        _setTokenURI(newItemId, metadata);\n        return newItemId;\n    }\n}",
  "sourcePath": "/Users/samueltang/Desktop/BlogNFT/contracts/BlogNFT.sol",
  "compiler": {
    "name": "solc",
    "version": "0.6.12+commit.27d51765.Emscripten.clang"
  },
  "schemaVersion": "3.3.2",
  "updatedAt": "2021-03-20T14:45:26.692Z",
  "devdoc": {
    "kind": "dev",
    "methods": {
      "approve(address,uint256)": {
        "details": "See {IERC721-approve}."
      },
      "balanceOf(address)": {
        "details": "See {IERC721-balanceOf}."
      },
      "baseURI()": {
        "details": "Returns the base URI set via {_setBaseURI}. This will be automatically added as a prefix in {tokenURI} to each token's URI, or to the token ID if no specific URI is set for that token ID."
      },
      "getApproved(uint256)": {
        "details": "See {IERC721-getApproved}."
      },
      "isApprovedForAll(address,address)": {
        "details": "See {IERC721-isApprovedForAll}."
      },
      "name()": {
        "details": "See {IERC721Metadata-name}."
      },
      "ownerOf(uint256)": {
        "details": "See {IERC721-ownerOf}."
      },
      "safeTransferFrom(address,address,uint256)": {
        "details": "See {IERC721-safeTransferFrom}."
      },
      "safeTransferFrom(address,address,uint256,bytes)": {
        "details": "See {IERC721-safeTransferFrom}."
      },
      "setApprovalForAll(address,bool)": {
        "details": "See {IERC721-setApprovalForAll}."
      },
      "supportsInterface(bytes4)": {
        "details": "See {IERC165-supportsInterface}. Time complexity O(1), guaranteed to always use less than 30 000 gas."
      },
      "symbol()": {
        "details": "See {IERC721Metadata-symbol}."
      },
      "tokenByIndex(uint256)": {
        "details": "See {IERC721Enumerable-tokenByIndex}."
      },
      "tokenOfOwnerByIndex(address,uint256)": {
        "details": "See {IERC721Enumerable-tokenOfOwnerByIndex}."
      },
      "tokenURI(uint256)": {
        "details": "See {IERC721Metadata-tokenURI}."
      },
      "totalSupply()": {
        "details": "See {IERC721Enumerable-totalSupply}."
      },
      "transferFrom(address,address,uint256)": {
        "details": "See {IERC721-transferFrom}."
      }
    },
    "version": 1
  },
  "userdoc": {
    "kind": "user",
    "methods": {},
    "version": 1
  }
}